:020000040800F2
:10000000680C0020890100088D11000859070008BC
:10001000310E000849040008193B000800000000E8
:10002000000000000000000000000000EB2A0008B3
:100030006D0400080000000035270008B92F0008F3
:10004000A3010008A3010008A3010008A301000800
:10005000A3010008A3010008A3010008A3010008F0
:10006000A3010008A3010008A3010008A3010008E0
:10007000A3010008A3010008A3010008A3010008D0
:10008000A3010008A301000831020008A301000831
:10009000A3010008A3010008A3010008A3010008B0
:1000A000A3010008A3010008A3010008A3010008A0
:1000B0000931000875320008A3010008A3010008F7
:1000C000A3010008A3010008A3010008A301000880
:1000D000A3010008A1370008C5370008A3010008E4
:1000E000A3010008A3010008A301000800F002F822
:1000F00000F03AF80AA090E8000C82448344AAF188
:100100000107DA4501D100F02FF8AFF2090EBAE885
:100110000F0013F0010F18BFFB1A43F0010318473B
:10012000D0480000F0480000103A24BF78C878C1D9
:10013000FAD8520724BF30C830C144BF04680C60ED
:10014000704700000023002400250026103A28BF35
:1001500078C1FBD8520728BF30C148BF0B60704739
:100160001FB51FBD10B510BD00F033F81146FFF7E5
:10017000F7FF04F0D5F800F051F803B4FFF7F2FFF1
:1001800003BC03F041FD00000948804709480047CF
:10019000FEE7FEE7FEE7FEE7FEE7FEE7FEE7FEE737
:1001A000FEE7FEE704480549054A064B7047000094
:1001B000BD2F0008ED00000868060020680C002034
:1001C0006808002068080020704770477047704733
:1001D0007047754600F028F8AE460500694653465C
:1001E00020F00700854618B020B5FFF7DBFFBDE81B
:1001F00020404FF000064FF000074FF000084FF08E
:10020000000B21F00701AC46ACE8C009ACE8C0091E
:10021000ACE8C009ACE8C0098D4670470446AFF3AE
:1002200000802046FFF7A9FF00487047080600201D
:1002300010B54FF40871094800F01FF8012806D1E5
:1002400007490870054800F014F8064908804FF483
:100250000871024800F008F810BD000000240140B9
:100260007C0000207E00002000220A12D34303609D
:1002700070470146C86C80B2704770B502460020D6
:10028000002300240B125568CEB205EA0604156857
:100290001D4015B10CB1012000E0002070BD000030
:1002A00070B504460D462DB316480088401C80B238
:1002B000144908801449154A127831F812108842FE
:1002C00004DB00200F4908801048047010480F49D3
:1002D000097830F811000B490988884205DD44F29D
:1002E00050610C4803F0CDF90BE00021094803F000
:1002F000C8F906E00020034908800021054803F002
:10030000C0F970BD70000020CA49000872000020CA
:10031000D04900080008004000200449087001206E
:1003200003490870052003490870704754000020F5
:10033000550000203100002070B504460D462DB355
:1003400016480088401C80B2144908801449154A98
:10035000127831F81210884204DB00200F4908801F
:100360001048047010480F49097830F811000B4903
:100370000988884205DD44F250610C4803F081F998
:100380000BE00021094803F07CF906E00020034956
:1003900008800021054803F074F970BD7400002046
:1003A000D649000876000020DC490008000800401B
:1003B0000020044908700120034908700620034901
:1003C00008707047540000205500002031000020C4
:1003D00017480078002826DD16480088401C80B2A7
:1003E000144908801449154A127831F812108842CD
:1003F00008DB00200F4908800D480078401E0C499A
:10040000087013E00E480D49097830F811000949C9
:100410000988884203DC00200A49086006E00120C0
:100420000849086002E000200649086070470000A3
:100430005500002078000020E24900085400002008
:10044000E8490008BC81214200BFFEE700200449C2
:1004500008700120034908700A200349087070479A
:10046000540000205500002031000020704700009B
:100470000120064908700820054908700020054938
:100480000870012004490870704700003200002005
:1004900031000020540000205500002030B50446F3
:1004A00004254FF4302000F06FF80546042D17D1D5
:1004B0000C48006940F002000A490861084644619E
:1004C000006940F0400008614FF4302000F05CF813
:1004D00005460448006941F6FD710840014908617C
:1004E000284630BD0020024004200B49C96801F0B5
:1004F000010109B101200EE00749C96801F00401BA
:1005000009B1022007E00449C96801F0100109B1EE
:10051000032000E0042070470020024003480069E7
:1005200040F080000149086170470000002002404F
:1005300070B504460D460426F00200F025F8064684
:10054000042E11D10948006940F0010007490861F3
:100550002580F00200F018F806460448006941F6CC
:10056000FE71084001490861304670BD002002401C
:1005700002480349486003484860704723016745C3
:1005800000200240AB89EFCD00B502460423FFF7FF
:10059000ABFF034603E0FFF7A7FF0346521E012B04
:1005A00001D1002AF7D102B90523184600BD2DE973
:1005B000F0410246002500260020002300240027E9
:1005C00091F803C00CF00F0591F803C00CF0100C6B
:1005D000BCF1000F03D091F802C04CEA050591F878
:1005E00000C0BCF1000F31D0146800202BE04FF0A8
:1005F000010C0CFA00F3B1F800C00CEA03069E42AD
:1006000020D183004FF00F0C0CFA03F7BC4305FA1E
:1006100003FC4CEA040491F803C0BCF1280F06D196
:100620004FF0010C0CFA00FCC2F814C00AE091F87B
:1006300003C0BCF1480F05D14FF0010C0CFA00FCCF
:10064000C2F810C0401C0828D1D31460B1F800C013
:10065000BCF1FF0F34DD546800202EE000F1080CDF
:100660004FF0010808FA0CF3B1F800C00CEA0306D9
:100670009E4221D183004FF00F0C0CFA03F7BC43CC
:1006800005FA03FC4CEA040491F803C0BCF1280FFE
:1006900005D100F1080C08FA0CF8C2F8148091F8A2
:1006A00003C0BCF1480F07D100F1080C4FF001085E
:1006B00008FA0CF8C2F81080401C0828CED3546009
:1006C000BDE8F081F0B50A46002300240021002592
:1006D00000F00046B6F1004F02D11D4EF16901E075
:1006E0001B4E7168C0F3034583B200F44016B6F5A3
:1006F000401F08D121F07061154E766826F07066B3
:10070000134F7E6012E000F48016B6F5801F06D10C
:10071000032606FA05F4A14341F0706106E0460D98
:10072000360103FA06F6B14341F0706122B1460D7D
:10073000360103FA06F6314300F00046B6F1004FE9
:1007400002D1034EF16101E0014E7160F0BD000085
:10075000000001404161704700BFFEE708B501217C
:100760000D2002F009F801211148FFF7ABFF4820E6
:100770008DF8030002208DF802004FF6F140ADF82D
:10078000000069460B48FFF712FF4FF6F141094898
:10079000FFF7E0FF41F2F100ADF8000069460648BE
:1007A000FFF705FF41F2F1010348FFF7D3FF08BD52
:1007B00000023000000C0140000801404CF6CC4023
:1007C00001490860704700000030004070B50546E0
:1007D0000C4645F2555000F01FF8284600F010F87E
:1007E000204600F013F800F003F8FFF7E7FF70BDB4
:1007F0004AF6AA2001490860704700000030004016
:10080000014948607047000000300040014988609D
:100810007047000000300040014908607047000048
:10082000003000400020044908700120034908708E
:100830000420034908707047540000205500002030
:10084000310000200EB54B48007878B14A488088C6
:1008500049494988484A1289CDE900210290464811
:10086000C38882884188102003F0B8FA4348007892
:1008700070B1434881884088414A1289CDE90020FF
:1008800002913F48C38882884188122003F0A6FA6B
:100890003C48007878B13C4880883B4949883A4ACE
:1008A0001289CDE9002102903748C38882884188A7
:1008B0000F2003F093FA3548007878B134488088E7
:1008C00033494988324A1289CDE9002102903048E3
:1008D000C388828841880C2003F080FA2D48007874
:1008E00070B12D48818840882B4A1289CDE90020BB
:1008F00002912948C388828841880D2003F06EFA4E
:100900002648007878B12648808825494988244AB5
:100910001289CDE9002102902148C388828841884C
:10092000132003F05BFA1F48007878B11E488088D6
:100930001D4949881C4A1289CDE9002102901A48B4
:10094000C388828841880E2003F048FA174800784F
:1009500078B11748808816494988154A1289CDE927
:10096000002102901248C38882884188112003F038
:1009700035FA0EBD4A000020A44800084B000020B4
:100980009A4800084C000020B84800084D0000209C
:10099000CC4800084E000020D64800084F00002038
:1009A0009048000850000020AE4800085100002088
:1009B000C248000870B500207D49087001207D49BB
:1009C00008707D48007808287DD2DFE800F0EE044A
:1009D000DCCAEE96B03179480078002804DD77480B
:1009E0000078401E7549087074480378972240F2D9
:1009F0002621052003F01CFA71480088714991FBFB
:100A0000F0F6304603F04AFE05466F486B4A12780E
:100A100050F82210284603F059FE044603F01EFE4B
:100A20006A49088008460188694802F028FEBDE04E
:100A300063480088C9285FDD61480088401E60491E
:100A4000088008460088642190FBF1F0C4B2234678
:100A5000972240F20D21052003F0EAF9584800885A
:100A60000A2190FBF1F090FBF1F201FB1200C4B2FD
:100A70002346972240F22521052003F0D9F92E23A1
:100A8000972240F23D21052003F0C2F94C4800882E
:100A90000A2190FBF1F201FB1200C4B22346972217
:100AA00040F25521052003F0C3F945480088454927
:100AB00091FBF0F084B22146454802F0DEFD40484B
:100AC0000088404900E070E091FBF0F6304603F00A
:100AD000E5FD05463C48394A127850F82210284670
:100AE00003F0F4FD044603F0B9FD384908800846D8
:100AF0000188374802F0C3FD58E0364800780028E6
:100B000004DD34480078401E3249087031480378CB
:100B1000972240F22621052003F08AF92E482D4A1B
:100B2000127830F812102D4802F0ADFD3EE02C484E
:100B30000078002804DD2A480078401E2849087003
:100B400027480378972240F22621052003F070F908
:100B50002448234A127830F81210204802F093FDFE
:100B600024E021480078002804DD1F480078401E5A
:100B70001D4908701C480378972240F22621052061
:100B800003F056F912E019480078002804DD1748F0
:100B90000078401E1549087014480378972240F2E7
:100BA0002621052003F044F900E000BF00BF70BD1E
:100BB0005400002055000020310000203B000020A0
:100BC0003800002080FC0A00644800085200002021
:100BD000002C014043000020784800080008004035
:100BE0004500002084480008490000203F00002004
:100BF00070B500207E49087001207E4908707E484B
:100C0000007808287ED2DFE800F0EF04DDCBEF9714
:100C1000B1317A480078042804DA78480078401C1A
:100C20007649087075480378972240F226210520FE
:100C300003F0FEF872480088724991FBF0F63046E6
:100C400003F02CFD054670486C4A127850F82210CB
:100C5000284603F03BFD044603F000FD6B49088085
:100C6000084601886A4802F00AFDBEE06448008830
:100C7000B0F5967F5FDA62480088401C60490880C2
:100C800008460088642190FBF1F0C4B22346972205
:100C900040F20D21052003F0CBF8594800880A21C5
:100CA00090FBF1F090FBF1F201FB1200C4B223467D
:100CB000972240F22521052003F0BAF82E2397222F
:100CC00040F23D21052003F0A3F84D4800880A2199
:100CD00090FBF1F201FB1200C4B22346972240F2CE
:100CE0005521052003F0A4F845480088454991FBAB
:100CF000F0F084B22146464802F0BFFC404800882C
:100D0000404900E070E091FBF0F6304603F0C6FC8D
:100D100005463D48394A127850F82210284603F01B
:100D2000D5FC044603F09AFC38490880084601883F
:100D3000374802F0A4FC58E036480078042804DA6A
:100D400034480078401C33490870324803789722B1
:100D500040F22621052003F06BF82F482D4A127827
:100D600030F812102D4802F08EFC3EE02C4800783E
:100D7000042804DA2A480078401C294908702848C9
:100D80000378972240F22621052003F051F82548E8
:100D9000234A127830F81210204802F074FC24E044
:100DA00021480078042804DA1F480078401C1E49B6
:100DB00008701D480378972240F22621052003F091
:100DC00037F812E019480078042804DA1748007848
:100DD000401C1649087015480378972240F22621D6
:100DE000052003F025F800E000BF00BF70BD000043
:100DF0005400002055000020310000203B0000205E
:100E00003800002080FC0A006448000852000020DE
:100E1000002C0140430000207848000800080040F2
:100E20004500002084480008490000203F000020C1
:100E300000BFFEE700200449087001200349087044
:100E40000820034908707047540000205500002016
:100E50003100002010B500205A49087001205A497D
:100E600008705A4800780B287DD2DFE800F0A80609
:100E700056426A1A2EA8A880940055480078002887
:100E800004DD53480078401E5149087050480078EE
:100E90004130C3B2FD2240F22621052002F0B8FF06
:100EA0008EE04C480078002804DD4A480078401E57
:100EB00048490870474800784130C3B2FD2240F2EB
:100EC0002621052002F0A4FF7AE04348007800289C
:100ED00004DD41480078401E3F4908703E480078D4
:100EE0004130C3B2FD2240F22621052002F090FFDE
:100EF00066E03A480078002804DD38480078401E53
:100F000036490870354800784130C3B2FD2240F2BE
:100F10002621052002F07CFF52E0314800780028AD
:100F200004DD2F480078401E2D4908702C480078B9
:100F30004130C3B2FD2240F22621052002F068FFB5
:100F40003EE028480078002804DD26480078401E4E
:100F500024490870234800784130C3B2FD2240F292
:100F60002621052000E02AE002F052FF28E01E487A
:100F70000078002804DD1C480078401E1A490870DB
:100F8000194800784130C3B2FD2240F226210520E5
:100F900002F03EFF14E015480078002804DD1348F5
:100FA0000078401E11490870104800784130C3B2E3
:100FB000FD2240F22621052002F02AFF00E000BFBA
:100FC00000BF10BD5400002055000020310000205B
:100FD0003A00002042000020440000204800002089
:100FE0003E000020400000203C0000204600002081
:100FF00010B500205A49087001205A4908705A4813
:1010000000780B287DD2DFE800F0A80656426A1A65
:101010002EA8A880940055480078022804DA534886
:101020000078401C51490870504800784130C3B2E4
:10103000FD2240F22621052002F0EAFE8EE04C4817
:101040000078022804DA4A480078401C48490870B1
:10105000474800784130C3B2FD2240F226210520E6
:1010600002F0D6FE7AE043480078022804DA4148CC
:101070000078401C3F4908703E4800784130C3B2B8
:10108000FD2240F22621052002F0C2FE66E03A4829
:101090000078022804DA38480078401C3649087085
:1010A000354800784130C3B2FD2240F226210520A8
:1010B00002F0AEFE52E031480078022804DA2F48F0
:1010C0000078401C2D4908702C4800784130C3B28C
:1010D000FD2240F22621052002F09AFE3EE028483B
:1010E0000078012804DA26480078401C244908705A
:1010F000234800784130C3B2FD2240F2262105206A
:1011000000E02AE002F084FE28E01E480078022871
:1011100004DA1C480078401C1A4908701948007805
:101120004130C3B2FD2240F22621052002F070FEBC
:1011300014E015480078022804DA13480078401CAF
:1011400011490870104800784130C3B2FD2240F2C6
:101150002621052002F05CFE00E000BF00BF10BDAC
:101160005400002055000020310000203A000020EB
:101170004200002044000020480000203E000020E3
:10118000400000203C00002046000020704710B5C1
:101190004FF4A06000F03AF810BD000070B50021D7
:1011A00000230F22C47804B3154C246804F4E064CF
:1011B000C4F5E064210AC1F10403CA40447804FA8A
:1011C00003F184781440214309010E4C0678A1559F
:1011D000047804F01F050124AC4005786D11AD00C2
:1011E00005F1E025C5F8004109E0047804F01F0589
:1011F0000124AC40044D0678761145F8264070BDB8
:101200000CED00E000E400E080E100E00249014371
:10121000024A1160704700000000FA050CED00E082
:10122000002004490870012003490870092003497F
:101230000870704754000020550000203100002045
:101240000EB5002062490860624908700C2002F067
:1012500013FE61488088604949885F4A1289CDE958
:10126000002102905C48C388828841880C2002F0EB
:10127000B5FDFFF7E7FA59480378972240F2262197
:10128000052002F0D5FD564800784130C3B2FD225A
:1012900040F22621052002F0BBFD5248008803F0F1
:1012A00001F851484D4A127830F812104F4802F0B8
:1012B000EAF94F48007878B14E4880884D4949880E
:1012C0004C4A1289CDE9002102904A48C38882889D
:1012D0004188142002F044FD02F00CFD3E4A00213A
:1012E000454802F0D5FE454A0021454802F0D0FEAF
:1012F000444A0021444802F0CBFE444A00214448BD
:1013000002F0C6FE434A0021434802F0C1FE434AB0
:101310000021434802F0BCFE424A0021424802F04C
:10132000B7FE424A0021424802F0B2FE414A002183
:10133000414802F0ADFE414A0021414802F0A8FEBA
:10134000404A0021404802F0A3FE404A00214048A4
:1013500002F09EFE3F4A00213F4802F099FE3F4ABC
:1013600000213F4802F094FE224A00213D4802F04D
:101370008FFE02F08FFF1CE002F038FE3A48007842
:1013800005280DD001201349087037480078082837
:1013900006D00020114908701149087014490870DE
:1013A00002F0BCFB1248007818B900210F4802F087
:1013B00068F9084800780028DED00B4801880B48FF
:1013C00002F061F902F066FF02F010FE0EBD0000AF
:1013D0009C81214232000020CC48000843000020BC
:1013E0004200002034000020784800080008004037
:1013F0004D0000201C49000819030008D6480008C9
:10140000B1030008A4480008852B0008AE48000876
:10141000F93A0008B8480008652900089A48000809
:1014200021120008904800084D040008C248000836
:1014300025080008E048000869370008EA48000865
:1014400031370008F4480008F10B0008FE48000896
:10145000B509000808490008F10F00081249000802
:10146000550E00088D2C0008310000200EB501201B
:10147000644908600020644908700D2002F0FCFCFB
:101480006248808861494988604A1289CDE9002113
:1014900002905E48C388828841880D2002F09EFC3D
:1014A000FFF7D0F95A480378972240F22621052009
:1014B00002F0BEFC574800784130C3B2FD2240F232
:1014C0002621052002F0A4FC5348008802F0EAFE21
:1014D00052484F4A127830F81210514802F0D3F8AF
:1014E0005048007878B1504880884F4949884E4A22
:1014F0001289CDE9002102904B48C3888288418837
:10150000142002F02DFC02F0F5FB484A0021484867
:1015100002F0BEFD3D4A0021464802F0B9FD464AB0
:101520000021464802F0B4FD454A0021454802F03A
:10153000AFFD454A0021454802F0AAFD444A00217A
:10154000444802F0A5FD444A0021444802F0A0FDB1
:10155000434A0021434802F09BFD434A002143488F
:1015600002F096FD424A0021424802F091FD424AB3
:101570000021424802F08CFD414A0021414802F01E
:1015800087FD414A0021414802F082FD404A002186
:10159000404802F07DFD244A00213F4802F078FDDA
:1015A00002F078FE1CE002F021FD3C48007806289D
:1015B0000DD001201449087038480078082806D05A
:1015C000002013490870134908701649087002F08A
:1015D000A5FA1448007818B90021114802F051F812
:1015E000094800780028DED00020064908600B4832
:1015F00001880B4802F047F802F04CFE02F0F6FCBE
:101600000EBD00009C81214232000020D648000817
:1016100045000020440000203400002084480008D9
:10162000000800404E0000201C490008CC4800087B
:1016300019030008B1030008A4480008852B00081E
:10164000AE480008F93A0008B848000865290008C3
:101650009A48000821120008904800084D0400082C
:10166000C248000825080008E0480008693700085B
:10167000EA48000831370008F4480008F10B000878
:10168000FE480008B509000808490008F10F0008E5
:1016900012490008550E00088D2C0008310000206A
:1016A0000EB5002071490870132002F0E5FB704868
:1016B00080886F4949886E4A1289CDE900210290DD
:1016C0006B48C38882884188132002F087FBFFF7AC
:1016D000B9F8684800784130C3B2FD2240F22621B3
:1016E000052002F095FB6448008802F0DBFD6348AA
:1016F000007878B16248808861494988604A1289D7
:10170000CDE9002102905E48C38882884188142078
:1017100002F026FB02F0EEFA5A4A00215A4802F083
:10172000B7FC5A4A00215A4802F0B2FC594A00213B
:10173000594802F0ADFC594A0021594802F0A8FC72
:10174000584A0021584802F0A3FC584A0021584842
:1017500002F09EFC464A0021564802F099FC564A87
:101760000021564802F094FC554A0021554802F0E9
:101770008FFC554A0021554802F08AFC544A00214A
:10178000544802F085FC544A0021544802F080FC81
:101790003B4A0021524802F07BFC524A0021524849
:1017A00002F076FC02F076FD56E002F01FFC4F4896
:1017B00000780A280BD001202C4908704B4800788B
:1017C000082804D000202B4908702C49087002F02A
:1017D000A5F92A48007890B30120454908602548BA
:1017E000007858B90120424914310860002041496D
:1017F000C1F898013E491C3108602DE01D48007871
:1018000001280CD100203A491431086001203949DF
:10181000C1F89801002036491C3108601CE01548C9
:101820000078022818D1002031491431086031496C
:10183000C1F8980101202E491C3108600CE0FFE737
:1018400000202B4908602B49C1F894012849183120
:1018500008602849C1F89C01044800780028A4D0F9
:1018600002F018FD02F0C2FB0EBD000032000020A5
:101870009048000846000020340000204F0000205F
:101880001C490008CC48000819030008D648000885
:10189000B1030008A4480008852B0008AE480008E2
:1018A000F93A0008B8480008652900089A48000875
:1018B000211200084D040008C2480008250800084D
:1018C000E048000869370008EA4800083137000896
:1018D00008490008F10F000812490008550E0008D9
:1018E0008D2C000830490008350E0008310000201A
:1018F00080012142000021420EB500205C490870A1
:10190000112002F0B9FA5B4880885A494988594A3F
:101910001289CDE9002102905648C3888288418807
:10192000112002F05BFAFEF78DFF5348007841303A
:10193000C3B2FD2240F22621052002F069FA4F4889
:10194000008802F0AFFC4E48007878B14D4880889E
:101950004C4949884B4A1289CDE9002102904948F7
:10196000C38882884188142002F0FAF902F0C2F993
:10197000454A0021454802F08BFB454A0021454875
:1019800002F086FB444A0021444802F081FB444AAD
:101990000021444802F07CFB434A0021434802F006
:1019A00077FB434A0021434802F072FB424A002180
:1019B000424802F06DFB2F4A0021414802F068FBCB
:1019C000404A0021404802F063FB404A0021404861
:1019D00002F05EFB3F4A00213F4802F059FB3F4ABC
:1019E00000213F4802F054FB264A00213D4802F006
:1019F0004FFB3D4A00213D4802F04AFB02F04AFC01
:101A00002CE002F0F3FA3A48007804280BD00120C9
:101A10001749087036480078082804D00020164975
:101A200008701749087002F079F81548007870B10D
:101A30000120304908601048007818B10120091DC4
:101A400008600BE000202B49091D086006E000201B
:101A50002849091D08602849C1F894010448007804
:101A60000028CED002F016FC02F0C0FA0EBD000035
:101A700032000020C248000840000020340000204E
:101A8000510000201C490008CC4800081903000838
:101A9000D6480008B1030008A4480008852B0008B8
:101AA000AE480008F93A0008B8480008652900085F
:101AB0009A48000821120008904800084D040008C8
:101AC00025080008E048000869370008EA480008CF
:101AD0003137000808490008F10F000812490008D2
:101AE000550E00088D2C000830490008350E0008FE
:101AF00031000020948121420080214210B5002055
:101B00002A4908700B2002F0B7F9FEF79BFE28481F
:101B1000008802F0C7FB02F0EDF8264A00212648B3
:101B200002F0B6FA254A0021254802F0B1FA254A0A
:101B30000021254802F0ACFA244A0021244802F092
:101B4000A7FA244A0021244802F0A2FA234A0021DD
:101B5000234802F09DFA234A0021234802F098FA14
:101B6000224A0021224802F093FA224A0021224808
:101B700002F08EFA214A0021214802F089FA02F08F
:101B800089FB0AE002F032FA1E480078082802D0E9
:101B900001200649087001F0C1FF044800780028C0
:101BA000F0D002F077FB02F021FA10BD32000020E5
:101BB00034000020CC48000819030008D64800086B
:101BC000B1030008A4480008852B0008AE480008AF
:101BD000F93A0008B8480008652900089A48000842
:101BE00021120008904800084D040008C24800086F
:101BF00025080008E048000869370008EA4800089E
:101C000031370008310000200EB5002071490870FE
:101C1000122002F031F9704880886F4949886E4A75
:101C20001289CDE9002102906B48C38882884188DF
:101C3000122002F0D3F8FEF705FE68480078413024
:101C4000C3B2FD2240F22621052002F0E1F86448EB
:101C5000008802F027FB6348007878B162488088EA
:101C600061494988604A1289CDE9002102905E48A5
:101C7000C38882884188142002F072F802F03AF892
:101C80005A4A00215A4802F003FA5A4A00215A4897
:101C900002F0FEF9594A0021594802F0F9F9594A6F
:101CA0000021594802F0F4F9584A0021584802F03E
:101CB000EFF9494A0021574802F0EAF9564A002153
:101CC000564802F0E5F9564A0021564802F0E0F97C
:101CD000554A0021554802F0DBF9554A0021554884
:101CE00002F0D6F9544A0021544802F0D1F9544A7E
:101CF0000021544802F0CCF93B4A0021524802F03E
:101D0000C7F9524A0021524802F0C2F902F0C2FA61
:101D100056E002F06BF94F48007809280BD00120FB
:101D20002C4908704B480078082804D000202B4923
:101D300008702C49087001F0F1FE2A48007890B331
:101D40000120454908604548007858B901204249BA
:101D50001039086000204249C1F8A8013E491C31F1
:101D600008602DE03D48007801280CD100203A4958
:101D70001039086001203A49C1F8A801002036490D
:101D80001C3108601CE035480078022818D100207A
:101D90003149103908603249C1F8A80101202E49A3
:101DA0001C3108600CE0FFE700202B4908602C493B
:101DB000C1F880012849183108602949C1F8AC01EF
:101DC000044800780028A4D002F064FA02F00EF96A
:101DD0000EBD0000320000209A4800083C000020A0
:101DE000340000204B0000201C490008CC480008AB
:101DF00019030008D6480008B1030008A4480008E9
:101E0000852B0008AE480008F93A0008B8480008D9
:101E10006529000821120008904800084D040008B8
:101E2000C248000825080008E04800086937000893
:101E3000EA4800083137000808490008F10F000897
:101E400012490008550E00088D2C00083049000882
:101E5000350E00083100002090812142460000200C
:101E6000008021420EB50020594908700F2002F071
:101E700003F85848808857494988564A1289CDE95D
:101E8000002102905348C388828841880F2001F0C6
:101E9000A5FFFEF7D7FC50480378972240F2262191
:101EA000052001F0C5FF4D4800784130C3B2FD2246
:101EB00040F22621052001F0ABFF4948008802F0DE
:101EC000F1F94848007878B1474880884649498800
:101ED000454A1289CDE9002102904348C38882888F
:101EE0004188142001F03CFF01F004FF3F4A00212B
:101EF0003F4802F0CDF83F4A00213F4802F0C8F8C1
:101F00003E4A00213E4802F0C3F83E4A00213E48C6
:101F100002F0BEF82F4A00213C4802F0B9F83C4AD2
:101F200000213C4802F0B4F83B4A00213B4802F053
:101F3000AFF83B4A00213B4802F0AAF83A4A002198
:101F40003A4802F0A5F83A4A00213A4802F0A0F8CF
:101F5000394A0021394802F09BF8394A00213948B2
:101F600002F096F8384A0021384802F091F8384AD1
:101F70000021384802F08CF81B4A0021364802F054
:101F800087F8364A0021364802F082F802F082F9DA
:101F900015E002F02BF83348007802280DD001201C
:101FA0000B4908702F480078082806D000200A49FD
:101FB00008700A4908700B49087001F0AFFD044829
:101FC00000780028E5D002F065F902F00FF80EBDA8
:101FD00032000020B84800083F0000203E000020EA
:101FE000340000204C0000201C490008CC480008A8
:101FF00019030008D6480008B1030008A4480008E7
:10200000852B0008AE480008F93A00086529000849
:102010009A48000821120008904800084D04000862
:10202000C248000825080008E04800086937000891
:10203000EA48000831370008F4480008F10B0008AE
:10204000FE480008B509000808490008F10F00081B
:1020500012490008550E00088D2C00083049000870
:10206000350E0008310000203EB50025002400F0A8
:1020700089FC012803D124490870244908700020F4
:1020800001F0ECFE4FF4FA7001F00EFE002514E0B2
:10209000E620FA21CDE90014029004F1180083B281
:1020A000E6222146012001F05BFE462001F0FCFD06
:1020B000681CC5B204F1190084B2202DE8DB64204D
:1020C00001F0F2FDB220DA21E42240F25A23CDE9F8
:1020D000002102900246012001F042FE00200C493E
:1020E000087001F007FE0B4A00210B4801F0D0FFF9
:1020F00001E001F07BFF064800780028F9D002F0EB
:10210000C9F801F073FF3EBD5400002055000020C7
:10211000320000208A49000871040008FEB5002042
:102120006D490870102001F0A7FE6C488188408836
:102130006A4A1289CDE9002002916848C3888288E2
:102140004188102001F04AFEFEF77CFB64480378CA
:10215000972240F22621052001F06AFE61480078AE
:102160004130C3B2FD2240F22621052001F050FE8D
:102170005D48008802F096F85C48007870B15C48D1
:10218000818840885A4A1289CDE900200291584836
:10219000C38882884188142001F0E2FD55480088F8
:1021A000554991FBF0F084B22146544801F065FA9C
:1021B00050480088504991FBF0F6304602F06EFA24
:1021C00005464F48464A127850F82210284602F039
:1021D0007DFA044602F042FA4A490880084601881E
:1021E000464801F04CFA01F085FD474A0021474876
:1021F00001F04EFF464A0021464801F049FF374AA8
:102200000021454801F044FF444A0021444801F0C0
:102210003FFF444A0021444801F03AFF434A00216D
:10222000434801F035FF434A0021434801F030FFA5
:10223000424A0021424801F02BFF424A0021424815
:1022400001F026FF414A0021414801F021FF414AA7
:102250000021414801F01CFF404A0021404801F0A4
:1022600017FF404A0021404801F012FF3F4A002179
:102270003F4801F00DFF1E4A00213E4801F008FFD3
:102280003D4A00213D4801F003FF3D4A00213D4801
:1022900001F0FEFE01F0FEFF15E001F0A7FE3A4856
:1022A000007801280DD001200B49087036480078CD
:1022B000082806D000200A4908700A4908700B490E
:1022C000087001F02BFC044800780028E5D001F0EC
:1022D000E1FF01F08BFEFEBD32000020A4480008A3
:1022E0003B0000203A000020340000204A0000207B
:1022F0001C4900083800002080FC0A00002C014026
:102300006448000852000020CC4800081903000867
:10231000D6480008B1030008852B0008AE48000825
:10232000F93A0008B8480008652900089A480008EA
:1023300021120008904800084D040008C248000817
:1023400025080008E048000869370008EA48000846
:1023500031370008F4480008F10B0008FE48000877
:10236000B509000808490008F10F000812490008E3
:10237000550E00088D2C000830490008350E000865
:1023800026490008ED2A00083100002070B5012020
:1023900056490870002056490870042055490870B5
:1023A00000205549087001225449554800F001FBAE
:1023B00052480088C92804DB50480088B0F5967F51
:1023C00006DDFA204D49088001224D4800F006FB49
:1023D000022001F051FD49480088642190FBF1F092
:1023E000C4B22346972240F20D21052001F020FDC2
:1023F000424800880A2190FBF1F090FBF1F201FBCA
:102400001200C4B22346972240F22521052001F094
:102410000FFD2E23972240F23D21052001F0F8FC0C
:10242000364800880A2190FBF1F201FB1200C4B289
:102430002346972240F25521052001F0F9FC2F4850
:102440000088304991FBF0F084B221462E4801F01B
:1024500014F92A4800882B4991FBF0F6304602F027
:102460001DF905462948234A127850F822102846BB
:1024700002F02CF9044602F0F1F8254908800846DC
:102480000188214801F0FBF801F034FC214A0021C9
:10249000214801F0FDFD214A0021214801F0F8FD0D
:1024A000204A0021204801F0F3FD01F0F3FE14E082
:1024B00001F09CFD1D48007807280ED001200E4930
:1024C0000870002009490870094908700949087016
:1024D00001220A490A4800F081FA074800780028DA
:1024E000E6D001F0D7FE01F081FD70BD4A0000206A
:1024F0003A0000203B00002032000020380000207D
:1025000000F8000880FC0A00002C01406448000824
:102510005200002030490008350E0008F448000839
:10252000F10B0008FE480008B50900083100002042
:102530000EB50020594908700E2001F09DFC584846
:10254000808857494988564A1289CDE9002102906E
:102550005348C388828841880E2001F03FFCFEF773
:1025600071F950480378972240F22621052001F0A6
:102570005FFC4D4800784130C3B2FD2240F2262175
:10258000052001F045FC4948008801F08BFE4848D1
:10259000007878B14748808846494988454A128979
:1025A000CDE9002102904348C388828841881420E5
:1025B00001F0D6FB01F09EFB3F4A00213F4801F0AD
:1025C00067FD3F4A00213F4801F062FD3E4A00217D
:1025D0003E4801F05DFD324A00213D4801F058FDC2
:1025E0003C4A00213C4801F053FD3C4A00213C4854
:1025F00001F04EFD3B4A00213B4801F049FD3B4ABA
:1026000000213B4801F044FD3A4A00213A4801F0DC
:102610003FFD3A4A00213A4801F03AFD394A00218B
:10262000394801F035FD394A0021394801F030FDC3
:10263000384A0021384801F02BFD384A002138483B
:1026400001F026FD1B4A0021364801F021FD364AE3
:102650000021364801F01CFD01F01CFE15E001F0E0
:10266000C5FC3348007803280DD001200B490870C1
:102670002F480078082806D000200A4908700A4927
:1026800008700B49087001F049FA044800780028E6
:10269000E5D001F0FFFD01F0A9FC0EBD32000020E5
:1026A000AE48000849000020480000203400002007
:1026B000500000201C490008CC48000819030008FD
:1026C000D6480008B1030008A4480008852B00087C
:1026D000F93A0008B8480008652900089A48000837
:1026E00021120008904800084D040008C248000864
:1026F00025080008E048000869370008EA48000893
:1027000031370008F4480008F10B0008FE480008C3
:10271000B509000808490008F10F0008124900082F
:10272000550E00088D2C000830490008350E0008B1
:10273000310000207047000029B1064AD2690243E7
:10274000044BDA6104E0034AD2698243014BDA6147
:10275000704700000010024029B1064A1269024386
:10276000044B1A6104E0034A12698243014B1A6167
:10277000704700000010024029B1064A92690243E6
:10278000044B9A6104E0034A92698243014B9A61C7
:10279000704700000010024029B1064AD268024387
:1027A000044BDA6004E0034AD2688243014BDA60EA
:1027B00070470000001002400348406A40F08070FB
:1027C00001494862704700000010024030B5002106
:1027D0000022002400232D4D6D6805F00C0121B16D
:1027E000042905D0082923D105E0294D056022E000
:1027F000274D05601FE0254D6D6805F47012234DCF
:102800006D6805F48034022505EB92421CB9214D18
:10281000554305600BE01D4D6D6805F400351DB195
:102820001C4D5543056002E0194D5543056002E01B
:10283000174D056000BF00BF144D6D6805F0F00135
:102840000909154D6B5C0568DD4045600F4D6D68ED
:1028500005F4E061090A104D6B5C4568DD40856058
:102860000A4D6D6805F46051C90A0B4D6B5C4568F3
:10287000DD40C560054D6D6805F44041890B074D8D
:102880006B5CC568B5FBF3F5056130BD0010024017
:1028900000127A0000093D001400002024000020EE
:1028A00010B501460022002300204A11012A02D15E
:1028B000094C236806E0022A02D1074C236A01E092
:1028C000054C636A01F01F02012494401C400CB1C6
:1028D000012000E0002010BD0010024070B5044649
:1028E0000D4645B318480088401C80B21649088040
:1028F0001649174A127831F81210884204DB00207A
:10290000114908801248047012481149097830F8BA
:1029100011000D490988884208DD0F480F4A1278D6
:1029200030F812100E4800F0AEFE0BE000210C480B
:1029300000F0A9FE06E000200349088000210848B5
:1029400000F0A1FE70BD00006C000020BE49000830
:102950006E000020C4490008B24900083F00002072
:102960000004004000200449087001200349087059
:1029700002200349087070475400002055000020D1
:102980003100002010B500247D20FFF789FF08B139
:1029900001240AE07C20FFF783FF08B1022404E051
:1029A0007B20FFF77DFF00B10324FFF705FF2046E2
:1029B00010BD30B503460C461546002207E0184608
:1029C00000F008F824F812009B1C501C82B2AA42A6
:1029D000F5DB30BD01460888704700002DE9F05F47
:1029E00080468A461746B8F1006F02D333488045C7
:1029F00001D3BDE8F09FFDF7BBFDA8F1006B4FEAE6
:102A00009B25CBF34809C9F50074A74200DC3C467E
:102A10004DE04FF0006101EB85208A142849FFF753
:102A2000C8FF00260BE009EB0600254931F810002D
:102A30004FF6FF71884200D003E0701C86B2A642B8
:102A4000F1DB00BFA6421BDA4FF0006101EB8520ED
:102A5000FDF724FD002608E03AF8160006EB090110
:102A6000174A22F81100701C86B2A642F4DB4FF020
:102A7000006101EB85208A14114900F023F804E07D
:102A800022465146404600F01DF8A74200D10FE013
:102A90006D1C4FF000090AEB440AA044381B87B2B2
:102AA000B7F5007F02DD4FF4007400E03C46B0E76C
:102AB00000BFFDF733FD00BF9BE7000000000108E9
:102AC000940000202DE9F04105460E4617460024EB
:102AD00007E036F814102846FDF72AFDAD1C601CEF
:102AE00084B2BC42F5DBBDE8F081704702200449A6
:102AF00008700320034908700720034908707047D5
:102B000054000020550000203100002070B504461C
:102B10000D4625B316480088401C80B21449088031
:102B20001449154A127831F81210884204DB00204B
:102B30000F4908801048047010480F49097830F890
:102B400011000B490988884204DD01210C4800F07E
:102B500070FC0BE000210A4800F06BFC06E000204E
:102B6000034908800021064800F063FC70BD0000A6
:102B70006200002094490008640000209A4900087F
:102B8000002C01400020044908700120034908700E
:102B900003490870704700005400002055000020D1
:102BA0003100002010B500F001F810BD0CB5002078
:102BB000019000903348006840F48030314908604B
:102BC00000BF3048006800F4003000900198401CBD
:102BD0000190009818B90198B0F5A06FF1D129487B
:102BE000006800F4003010B10120009001E00020E6
:102BF00000900098012843D12348006840F010005D
:102C0000214908600846006820F003000860084673
:102C1000006840F0020008601A484068194948609E
:102C20000846406848600846406840F48060486054
:102C30000846406820F47C1048600846406840F42C
:102C4000E81048600846006840F08070086000BFE7
:102C50000C48006800F000700028F9D0094840686E
:102C600020F00300074948600846406840F0020031
:102C7000486000BF0348406800F00C000828F9D104
:102C80000CBD000000100240002002400EB50120E3
:102C9000B3490870B3490870B34800780B2871D263
:102CA000DFE800F07006AF85D9305A7070F1F0009F
:102CB000AE48007898B10020AC490870AC488088D4
:102CC000AB494988AA4A1289CDE900210290A84857
:102CD000C38882884188102001F042F811E0012069
:102CE000A2490870A24881884088A14A1289CDE98A
:102CF000002002919E48C38882884188142001F0F8
:102D00002FF82AE19B48007898B100209949087073
:102D10009748808896494988954A1289CDE90021CB
:102D200002909348C38882884188102001F018F8E7
:102D300011E001208F4908708D48818840888C4AB5
:102D40001289CDE9002002918948C3888288418890
:102D5000142001F005F800E18748007898B10020C0
:102D600085490870824881884088814A1289CDE966
:102D7000002002917E48C38882884188102000F09C
:102D8000EFFF13E0E8E001207B4908707848808875
:102D900077494988764A1289CDE900210290744822
:102DA000C38882884188142000F0DAFFD5E0734898
:102DB000007890B10020714908706D488188408882
:102DC0006B4A1289CDE9002002916948C388828844
:102DD0004188102000F0C4FF12E00120674908700C
:102DE0006348808862494988614A1289CDE9002197
:102DF00002905F48C38882884188142000F0B0FFA9
:102E0000ABE05F48007898B100205D4908705848F1
:102E1000808857494988564A1289CDE90021029095
:102E20005348C38882884188102000F099FF11E040
:102E30000120534908704E48818840884C4A1289C5
:102E4000CDE9002002914A48C38882884188142035
:102E500000F086FF81E04B480078A8B10020494986
:102E600008704348808842494988414A1289CDE91F
:102E7000002102903E48C38882884188102000F0DB
:102E80006FFF13E03DE012E001203E490870384832
:102E900081884088364A1289CDE900200291344861
:102EA000C38882884188142000F05AFF55E03648D4
:102EB000007890B10020344908702D4881884088FE
:102EC0002B4A1289CDE9002002912948C3888288C3
:102ED0004188102000F044FF12E001202A490870C8
:102EE0002348808822494988214A1289CDE9002156
:102EF00002901F48C38882884188142000F030FF68
:102F00002BE02248007898B100202049087018482A
:102F1000808817494988164A1289CDE90021029014
:102F20001348C38882884188102000F019FF12E0FE
:102F30000120164908700E4880880D4949880C4ABE
:102F40001289CDE9002102900948C388828841880E
:102F5000142000F005FF00E000BF00BF0EBD000020
:102F60005400002055000020310000204A000020BD
:102F70001C4900084D0000204E0000205000002099
:102F80004C000020510000204B0000204F0000208A
:102F9000042808D14FF0E021096941F004014FF005
:102FA000E022116107E04FF0E021096921F00401FE
:102FB0004FF0E022116170477047000010B51348D0
:102FC000006840F001001149086008464068104957
:102FD00008400E494860084600680E4908400B4901
:102FE00008600846006820F48020086008464068B1
:102FF00020F4FE0048604FF41F008860FFF7D2FD08
:103000004FF000600449086010BD0000001002404D
:103010000000FFF8FFFFF6FE08ED00E030B58DB0D0
:1030200005460C46012140F60C00FFF7A5FB0020E9
:10303000ADF82E00ADF82A00ADF82C50ADF82840C0
:103040008DF830000AA92D4800F020FB01212B4803
:1030500000F0C4F90121294800F0DFF918208DF8AB
:1030600027004FF48070ADF8240003208DF826006F
:1030700009A92348FDF79BFA4FF40050ADF824004E
:1030800009A92048FDF793FA0020ADF82000602040
:10309000ADF814000020ADF82200ADF81E00ADF828
:1030A0001C000420ADF818000120ADF81600002027
:1030B000ADF81A0005A9114800F0E4F90020ADF8B8
:1030C0001000ADF80C00ADF80E000520ADF80A00B8
:1030D0000020ADF80800ADF80600ADF8040001A925
:1030E000064800F087F90821044800F017FA00218B
:1030F000024800F09EF90DB030BD0000002C0140E8
:1031000000080140000C014010B50121880700F0C3
:103110009FF900285CD00121880700F07BF901208D
:103120002C49087000BF4AF6AA202B49086000BF4E
:103130002A4801782A480078FFF7E8FC29480178F6
:103140002948007800F07CFC2848007830B12748F6
:10315000017827480078FDF7A3F805E025480178B5
:1031600025480078FDF7E8F82448017824480078DD
:10317000FFF7B4FBFDF72CF918480078A0B92148F7
:10318000007888B91D48007870B91848007858B997
:103190001848007840B91C48007828B911480078D0
:1031A00010B91A48007870B119480088401C80B2E4
:1031B00017490880B0F57A7F0ADB002008800120DB
:1031C0001449087004E00020114908801149087072
:1031D00010BD000030000020003000404A000020F8
:1031E0003A00002050000020480000204D00002040
:1031F000420000204E000020440000204C0000202F
:103200003E0000204B0000204F0000205100002015
:103210002C000020360000207FB505460C46012119
:103220000846FFF789FAADF80850ADF804400020D1
:10323000ADF80A00ADF8060001A94FF0804000F09B
:1032400025FA01221146900700F013F91C208DF891
:10325000000003208DF8010000208DF802000120FD
:103260008DF803006846FDF799FF0121880700F0FB
:10327000D4F87FBD10B50121094800F0E9F870B11C
:103280000121074800F0C6F806480088401C80B2BB
:1032900004490880B0F57A7F01DB0020088010BD6A
:1032A000000400402E00002030B589B005460C46D1
:1032B00001210220FFF740FA01210820FFF75CFA04
:1032C0000220ADF8200018208DF8230003208DF88F
:1032D000220008A91648FDF76AF9ADF81850ADF8B4
:1032E00014400020ADF81A00ADF8160005A91148E9
:1032F00000F0CCF97020ADF804000120ADF8060014
:103300000020ADF80A000220ADF80C0001A9094820
:1033100000F068F90821074800F0A2F901210548EA
:1033200000F05CF80121034800F077F809B030BDE7
:10333000000C01400004004030B589B005460C4641
:1033400001210420FFF7F8F901210820FFF714FA02
:103350004FF44070ADF8200018208DF823000320B2
:103360008DF8220008A91B48FDF721F9ADF8185087
:10337000ADF814400020ADF81A00ADF8160005A90C
:10338000154800F083F97020ADF804000120ADF875
:1033900006000020ADF80A000220ADF80C0001A9DB
:1033A0000D4800F0C5F801A90B4800F01BF90821F1
:1033B000094800F00DF90821074800F051F90121F2
:1033C000054800F00BF80121034800F026F809B089
:1033D00030BD0000000C01400008004021B102880F
:1033E00042F08002028004E002884FF67F731A40A8
:1033F000028070470A884B881A438B881A43CB880F
:103400001A430B891A434B891A438B891A43A0F834
:1034100044207047CA430282704721B1028842F0BB
:103420000102028004E002884FF6FE731A40028017
:10343000704731B1B0F8442042F40042A0F8442073
:1034400005E0B0F84420C2F30E02A0F84420704713
:1034500030B50246002000230024158A05EA010346
:10346000958905EA010413B10CB1012000E00020A8
:1034700030BD1AB183890B43838102E083898B437A
:103480008381704770B5002400220023058C4FF61D
:10349000FE7635400584028C8388048B4FF68F7549
:1034A0002C40B51E2C400D882C43751E2A400D89DA
:1034B0002A434D882A43144DA8420BD0134DA842ED
:1034C00008D0134DA84205D0124DA84202D0124D8B
:1034D000A84213D14FF6F7752A404D892A434FF67B
:1034E000FB752A408D882A434FF6FF652B404FF627
:1034F000FF552B408D892B43CD892B43838004833B
:10350000CD888586028470BD002C014000340140C6
:103510000040014000440140004801400A460021AB
:10352000018B4FF6F7731940114301837047000078
:1035300070B5002400220023058C4FF6FF6635404D
:103540000584028C8388848B4FF68F752C404FF650
:10355000FC752C400D882C434FF6FF552A400D89F1
:103560004FF6FF7606EA05252A434D8806EA05252B
:103570002A43154DA84202D0144DA8421DD14FF246
:10358000FF752A404D894FF6FF7606EA05252A4346
:103590004FF6FF352A408D8806EA05252A434EF668
:1035A000FF752B404DF6FF752B408D8906EA0515FA
:1035B0002B43CD8906EA05152B4383808483CD8870
:1035C0008587028470BD0000002C0140003401405A
:1035D0000A460021818B4FF6F7731940114381830E
:1035E0007047000070B5002200230024058C4EF6C1
:1035F000FF7635400584038C8488828B48F6FF75FE
:103600002A404FF6FF452A400D884FF6FF7606EA1E
:1036100005252A434DF6FF752B400D8906EA053531
:103620002B434D8806EA05352B430B4DA84202D0AB
:103630000A4DA84208D14BF6FF752C408D894FF6F4
:10364000FF7606EA85152C4384808283CD88A0F816
:103650004050038470BD0000002C01400034014044
:103660000A460021818B4FF2FF7319404FF6FF731A
:1036700003EA02231943818370478185704781865D
:10368000704781877047A0F8401070470022028879
:103690001D4B98420ED01D4B98420BD0B0F1804F7D
:1036A00008D01B4B984205D01A4B984202D01A4BB7
:1036B000984204D14FF68F731A404B881A43174B28
:1036C000984207D0164B984204D04FF6FF431A4059
:1036D000CB881A4302808B8883850B8803850A4B2D
:1036E00098420BD0094B984208D00E4B984205D017
:1036F0000D4B984202D00D4B984201D10B7A0386B4
:103700000123838270470000002C014000340140F7
:103710000004004000080040000C00400010004081
:1037200000140040004001400044014000480140B6
:1037300010B500200949087001200949087009489E
:1037400000883C2808DD074800883C380549088087
:103750000846008800F0A6FD10BD000054000020BF
:10376000550000203400002010B5002009490870E1
:1037700001200949087009480088B0F5616F08DA2E
:10378000064800883C30054908800846008800F05B
:1037900089FD10BD54000020550000203400002099
:1037A00010B540F22551064800F085F830B10448C4
:1037B00000F03CF9C4B2204600F02AFA10BD000027
:1037C0000038014010B540F22551064800F073F86A
:1037D00030B1044800F02AF9C4B2204600F082FC5F
:1037E00010BD00000044004021B1828942F4005223
:1037F000828104E082894DF6FF731A40828170470E
:1038000010B504462048844209D101218803FEF7FF
:10381000C3FF00214FF48040FEF7BEFF32E01B489B
:10382000844209D101214804FEF796FF00214FF49C
:103830000030FEF791FF25E01548844209D10121AF
:103840008804FEF789FF00214FF48020FEF784FFF3
:1038500018E01048844209D10121C804FEF77CFF1A
:1038600000214FF40020FEF777FF0BE00A48844266
:1038700008D101210805FEF76FFF00214FF48010E9
:10388000FEF76AFF10BD0000003801400044004010
:1038900000480040004C004000500040024600201C
:1038A000B1F5007F00D100BF13880B400BB10120A0
:1038B00000E00020704770B5024600240023002578
:1038C000002040F66A16B14200D100BFC1F3421594
:1038D00001F01F03012606FA03F3012D02D1968998
:1038E000334006E0022D02D1168A334001E0968A69
:1038F00033400C12012606FA04F41688344013B142
:103900000CB1012000E0002070BDF0B5034600249A
:1039100000260025002040F66A17B94200D100BFFA
:103920001846C1F3421401F01F06012707FA06F5F5
:10393000012C01D10C3004E0022C01D1103000E048
:1039400014301AB107682F43076002E00768AF43DD
:103950000760F0BD2DE9F04786B005460E4600240D
:10396000A24600BFA1460027B08900B100BF2F4684
:103970002C8A4CF6FF700440F08804432C82AC89FA
:103980004EF6F3100440B08831890843718908432A
:103990000443AC81AC8A4FF6FF400440B089044335
:1039A000AC8201A8FEF712FF1F48874202D1DDF862
:1039B00010A001E0DDF80CA0A88900F4004040B19F
:1039C0000AEBCA0000EB0A1031684900B0FBF1F8BD
:1039D00007E00AEBCA0000EB0A1031688900B0FB6F
:1039E000F1F86420B8FBF0F004012009642101FB28
:1039F0001089A88900F4004040B1322000EBC900D2
:103A0000B0FBF1F000F00700044308E0322000EBC7
:103A100009106421B0FBF1F000F00F0004432C8189
:103A200006B0BDE8F08700000038014001468888F4
:103A3000C0F308007047C1F308028280704700009D
:103A400010B500293ED0234A1288521C92B2214B55
:103A50001A80214B214C247833F814309A4204DB2D
:103A600000221C4B1A801D4A10701D4A1B4B1B78EC
:103A700032F81320174B1B889A421DDD194A128811
:103A8000521C92B2174B1A80062A05DB00221A80BC
:103A9000154A1278154B1A70154A144B1B78D25CD4
:103AA000104B1B889A4203DD0122124B1A6010E072
:103AB0000022104B1A600CE000220E4B1A60094BDA
:103AC0001A8006E00022034B1A80064B1A80094B2D
:103AD0001A6010BD66000020A64900086A00002098
:103AE000AC49000868000020490000206B0000205D
:103AF000A0490008B00121420020044908700120BB
:103B000003490870032003490870704754000020DF
:103B1000550000203100002000BFFEE70EB52D4803
:103B20000078A8B92C48007890B92C48007878B96A
:103B30002B48007860B92B48007848B92A480078AB
:103B400030B92A48007818B92948007800283FD0B1
:103B50002848007800283BD00020264908702648D5
:103B60000088002805DD24480088401E224908807E
:103B70002AE00220214908700320214908704FF4EF
:103B8000E1601D4908800020124908701249087040
:103B900012490870124908701249087012490870D9
:103BA00012490870124908701648808815494988DA
:103BB000144A1289CDE9002102901248C3888288F4
:103BC0004188102000F0CCF80B48008800F06AFB18
:103BD0000EBD00004A0000204B0000204C000020D9
:103BE0004D0000204E0000204F000020500000201B
:103BF0005100002036000020340000205400002036
:103C0000550000201C490008014600BF7047000015
:103C10001149097839B9AA281CD10F490978491CDA
:103C20000D4A117016E00C49097804290ADA0A498C
:103C30000978491E094A505407490978491C064A1F
:103C4000117007E00021044A1170552802D10121AA
:103C5000034A1170704700007B0000205C000020C8
:103C60006100002010B56FF00400FFF791F90A48D9
:103C700000680A49B0FBF1F009490870084600786D
:103C800000EB4001C1EBC0104FF6FF7101EAC0002C
:103C90000449088010BD00000000002000127A00D6
:103CA000280000202A0000200146114A12884A43B9
:103CB0004FF0E0235A6100229A611A46126942F0DD
:103CC00001021A6100BF4FF0E022106900F001020A
:103CD0001AB100F48032002AF5D04FF0E0221269C8
:103CE00022F001024FF0E0231A6100229A6170472E
:103CF0002A0000200020014908707047850000203C
:103D0000002014490880144840780880084600883C
:103D10004FF6FF7101EA00200E4908800E488078B6
:103D2000098808440B49088000200C4908800A488B
:103D3000C0780880084600884FF6FF7101EA00202D
:103D40000649088004480079098808440349088026
:103D500070470000800000209404002082000020B2
:103D60002DE9F04782460C4615461E46DDE90989D5
:103D7000089FAA2000F04CFA712000F049FA504642
:103D800000F046FA201200F043FAE0B200F040FAE8
:103D9000281200F03DFAE8B200F03AFA301200F0D2
:103DA00037FAF0B200F034FA381200F031FAF8B213
:103DB00000F02EFA4FEA282000F02AFA08F0FF005F
:103DC00000F026FA4FEA292000F022FA09F0FF005D
:103DD00000F01EFA00F022FABDE8F0872DE9FE4F50
:103DE00004460D4616461F46DDE90D9ADDF8308083
:103DF00006498DE8000709782144C8B23B4632469F
:103E00002946FFF7ADFFBDE8FE8F000084000020CB
:103E1000F8B505460E4617461C46002000908DF862
:103E200000406B463A463146284600F031F8F8BD6E
:103E3000F8B505460E4617461C460A2C0DDA00203A
:103E4000009004F13000C0B28DF800006B463A4695
:103E50003146284600F01CF800BFF8BD10B50446F6
:103E6000AA2000F0D5F9702000F0D2F9204600F029
:103E7000CFF900F0D3F910BD10B504460349097815
:103E80002144C8B2FFF7EAFF10BD00008400002003
:103E90002DE9F04104460D4616461F464FF0000836
:103EA000AA2000F0B5F9062C1CD2DFE804F00307C5
:103EB0000B0F1317532000F0ABF913E06E2000F046
:103EC000A7F90FE0542000F0A3F90BE06F2000F0F9
:103ED0009FF907E0552000F09BF903E0982000F0DF
:103EE00097F900BF00BF281200F092F9E8B200F085
:103EF0008FF9301200F08CF9F0B200F089F9052C3E
:103F00001AD1242000F084F9812000F081F90520E5
:103F100000F07EF911490988081200F079F90F497B
:103F2000087800F075F90E490988081200F070F958
:103F30000B49087800F06CF907E017F8080000F06A
:103F400067F908F1010000F0FF0817F808000028E1
:103F5000F3D100F063F9BDE8F08100008600002095
:103F60008800002000B5FFF7CBFE00222EE002EB18
:103F700042001A4901EB800080684088184909888E
:103F8000884221DC02EB4200144901EB800080688A
:103F9000C08813490988884216DB02EB42000F49AA
:103FA00001EB8000806880880E49098888420BDC1C
:103FB00002EB4200094901EB800080680089094951
:103FC0000988884200DB05E0501CC2B20648007830
:103FD0008242CCDB00BF104600BD0000A0040020E0
:103FE00080000020820000208500002010B500F035
:103FF00073F873281FD122480078E0B901202049C6
:104000000870FFF7AFFF1F490870084600781E4987
:10401000097888420FDA1B48007800EB40001B4902
:1040200051F8200038B11749097801EB4101174ACE
:1040300052F82100804700F04FF872281ED1104836
:10404000007801281AD100200D4908700D48007829
:104050000D490978884211DA0A48007800EB4000DF
:104060000A4901EB8000406840B10649097801EB3C
:104070004101064A02EB81014868804710BD0000FB
:10408000900000209100002085000020A004002066
:1040900010B50F4B1B781E2B19DA0D4B1B7803EB59
:1040A00043030C4C44F82300094B1B7803EB4303F8
:1040B00004EB83035960064B1B7803EB430304EBCB
:1040C00083039A60024B1B785B1C014C237010BD6C
:1040D00085000020A00400200148007870470000FF
:1040E00094040020474909780A2975D2DFE801F0D5
:1040F000050D343C444C54606C79AA2804D14149E4
:104100000978491C3F4A117079E0732807D13D496D
:104110000978491C3B4A11703B4908701BE0722822
:1041200006D10021374A11707221384A117012E00D
:10413000E42805D10421334A1170334908700AE09C
:1041400030B900212F4A11707421304A117002E0F9
:1041500000212C4A117052E02C49487029490978F5
:10416000491C284A11704AE0284988702549097875
:10417000491C244A117042E02449C8702149097839
:10418000491C204A11703AE0204908711D490978FC
:10419000491C1C4A117032E0CC2805D11949097814
:1041A000491C184A117002E00021164A117026E0DD
:1041B000332805D113490978491C124A117002E0CD
:1041C0000021104A11701AE0C32806D10D49097860
:1041D000491C0C4A117003E00DE00021094A1170DE
:1041E0000DE03C2806D10021064A117006490978E5
:1041F000064A117003E00021024A117000BF00BF9F
:1042000070470000920000209300002094040020DA
:1042100010B50446204600F009FA10BD10B5CC20B8
:10422000FFF7F6FF3320FFF7F3FFC320FFF7F0FFA0
:104230003C20FFF7EDFF10BD10B50446AA20FFF7A4
:10424000E7FF5F20FFF7E4FF2046FFF7E1FFFFF7FE
:10425000E5FF10BD70B504460D460C4804800C48BF
:104260000580AA20FFF7D4FF4020FFF7D1FF2012DE
:10427000FFF7CEFFE0B2FFF7CBFF2812FFF7C8FF32
:10428000E8B2FFF7C5FFFFF7C9FF70BD8600002049
:104290008800002000BF024800787228FBD17047D8
:1042A0009404002070B504464FF4167094FBF0F0AF
:1042B000C5B22B462A2255210520FFF7B9FD3C2027
:1042C00094FBF0F00A2190FBF1F201FB1200C5B261
:1042D0002B462A226D210520FFF7AAFD3A232A2228
:1042E00085210520FFF794FD3C2094FBF0F100FBB5
:1042F00011400A2190FBF1F0C5B22B462A229D21E4
:104300000520FFF795FD0A2094FBF0F100FB11401A
:10431000C5B22B462A22B5210520FFF789FD70BDC5
:10432000FCF735FFFFF79EFCFCF718FA4FF4165028
:1043300000F0BEF84FF4E13000F00EF9002148F62D
:10434000A040FEF7F9FF48F6A0413B48FFF79BF974
:1043500000213948FFF795F900216620FEF7A4FFF8
:10436000002140F6B120FEF759FE00F073F820203E
:10437000FFF762FF462140F2E730FEF74DFF0122D2
:104380002E492F48FEF715FB2C480088C92804DB6E
:104390002A480088B0F5967F0BDDFA20274908806F
:1043A00001222748FEF71AFB0120264908702649FA
:1043B0000870012000F022F90020244908702449E7
:1043C00008704FF6FF71FFF745FF40F2712106209C
:1043D000FCF7FCF92EE01D4800780B2828D2DFE816
:1043E00000F0060C2412181B1E0F09152100FDF702
:1043F0003BFE1EE0FDF782FB1BE0FDF78FFE18E0A1
:10440000FDF7C4FF15E0FEF793F812E0FDF7FCFBA3
:104410000FE0FDF771FA0CE0FCF712FF09E0FDF781
:1044200025F806E0FDF73CF903E0FDF71BFD00E091
:1044300000BF00BFCFE700000008004038000020A8
:1044400000F8000854000020550000203100002032
:104450008400002010B5002415E0AA20FFF7D8FE44
:104460000020FFF7D5FEFFF7D9FE0520FFF71CFC63
:10447000FFF732FE742801D1FF2406E0C820FFF7C1
:1044800013FC601CC4B20A2CE7DB00BFFF2C0AD06F
:1044900008E005480068C0430449C1F8BC01C820D1
:1044A000FFF702FCF5E710BDBC81214200802142EC
:1044B00010B586B00446012144F20400FEF75CF911
:1044C0002348FFF79DF94FF40070ADF81400032066
:1044D0008DF8160018208DF8170005A91D48FCF767
:1044E00066F84FF48060ADF8140048208DF817008E
:1044F00005A91848FCF75BF825208DF8000003207B
:104500008DF801008DF8020001208DF80300684647
:10451000FCF744FE01940020ADF80800ADF80A0055
:10452000ADF80C00ADF810000C20ADF80E0001A99C
:104530000748FFF70FFA012240F225510448FFF720
:10454000E4F901210248FFF74FF906B010BD000061
:10455000003801400008014010B586B00446012132
:104560000420FEF709F901214804FEF7E5F80420CC
:10457000ADF8140018208DF8170005A91D48FCF7A8
:1045800016F80820ADF8140048208DF8170005A98A
:104590001848FCF70CF81848FFF732F926208DF878
:1045A000000002208DF8010003208DF80200012098
:1045B0008DF803006846FCF7F1FD01940020ADF88A
:1045C0000800ADF80A00ADF80C00ADF810000C20A2
:1045D000ADF80E0001A90848FFF7BCF9012240F22E
:1045E00025510548FFF791F901210348FFF7FCF831
:1045F00006B010BD000801400044004010B504465C
:1046000000BF80210848FFF749F90028F9D021466A
:104610000548FFF710FA00BF40210348FFF73EF9B5
:104620000028F9D010BD00000038014010B5044644
:1046300000BF80210848FFF731F90028F9D0214652
:104640000548FFF7F8F900BF40210348FFF726F9B6
:104650000028F9D010BD000000440040C10DD1F188
:104660009E0206DB4FEA002343F0004323FA02F0E8
:104670007047004207D54FEA4001B1F1FE4F02D228
:104680004FF00000704710B500F0A1F84992248067
:10469000002070476FEA20007047000010F00041D2
:1046A00048BF4042B0FA80F310FA03F2C3F19D0311
:1046B0000BD051EAC35101EB1220530638BF7047AB
:1046C00000F1010008BF20F0010070474FF47F0C9B
:1046D0001CEAD0121EBF1CEAD11392EA0C0F93EA17
:1046E0000C0F00F0478090EA010F48BF42F480723F
:1046F0004FF0004C4CEA00204CEA012102EB03028F
:10470000A0FB0113A2F50002002918BF43F001032A
:104710005B0028BF4FEA330342EB22425FEA132CCF
:104720004CEBC2502EBFBCEB436FB2F57C0F704711
:104730004FEA036CBCF1004F08BF20F00100B2F556
:104740007C0F38BF70470BD582F0FF0212F5803F17
:10475000C8BF704700F1C040D8BF00F000407047AC
:1047600000F5000C5FEA4C0C48BF7047B0F1C04048
:1047700000F073B890EA010F0CEAD11348BF42F47D
:104780008072624538BF634504D280EA010000F0C0
:104790000040704710B500F01AF800BF8900013ED4
:1047A00000F007B800F009B85FEA410C5FEA1C6C42
:1047B00008D080EA010000F050B85FEA400C5FEAE0
:1047C0001C6CF6D14FF00040A0F5800070470EF150
:1047D000020E2EF0030E5EF8044B244204D44FEA7E
:1047E0004102B2F17F4F11D84FEA4003B3F17F4F3E
:1047F0000CD80ED14FEAD07CB2F17F4F0CEB4C0CB1
:104800000CF1020C08BF4CEBD17C04E04FF0080C1B
:1048100001E04FEAD17C0CEB4C0324FA03F404F0E2
:104820000704B4F1040C06D20EEB840CBDE8104072
:104830004CF0010C6047DFE80CF0070802024FF073
:104840000040A0F5800010BD0846420018BFD2F11C
:10485000807288BF00F0004010BDFF2141EAD050B7
:10486000C005704700000000CDCCCC3DCDCC4C3E07
:104870009A99993ECDCCCC3EA08C204E102788131F
:1048800000000000A08C3C73546F6C6B8467A861BF
:1048900014009A0083011601CF0114000A0083015D
:1048A0008600CF0114000A00260186007201140060
:1048B0000A00C8008600150114009A00C8001601FD
:1048C000150114009A0026011601720114000A0055
:1048D0006A008600B70014009A006A001601B7004B
:1048E00014001D0020004D0050001400D3002000D3
:1048F000040150001400CB019100FD01C000140020
:1049000084029100B602C0001400CB01FD00FD013D
:104910002C0114008402FA00B6022901140050028E
:104920005201EE0286011400F602B9011F03DF01F5
:104930001400D00209000F0340001400D30020002F
:104940000401500014001D0020004D005000140010
:1049500050002E0192006D0114004D00F4019000F2
:10496000370214004A0112019801570114004A014C
:1049700068019801AA0114004A01C20198010802C5
:1049800014009600080249016E020B0000000000AE
:104990002003E001581BC8000C007017280003001A
:1049A000000203040506E803FE01FC03E803FC0023
:1049B000F80100000C0017001C0023002B00E80386
:1049C000FE01FC03E803FC00F801A700FA009001D7
:1049D00054008C00F00028009001B0041400F00096
:1049E00020036E009A01E80364009001F4010000C6
:1049F000104A000800000020940000002801000870
:104A0000A44A000894000020D40B000044010008D0
:104A100000A24A040000000000000000010203049C
:104A20000607080900000000010203040102030454
:104A30000607080902040608000000000000000044
:104A40000000000008070000FA000000000000005D
:104A50000000000000000000000000000000000056
:104A60000000000000000000000000000000000046
:104A70000000000000000000000000000000000036
:104A80000000000000000000000000000100000025
:104A9000000000000000FFFF000000000000000018
:044AA0000000000012
:04000005080000ED02
:00000001FF
